:020000040000FA
:1000000080313128080008007E1480314E01161E10
:100010000A280B2813280C1E0E280F2813288F31AE
:100020005E2780312F280B1F162817282F28191C10
:100030001A281B2823280F1C1E281F282328873135
:100040003D2780312F28171C262827282F280D1CF4
:100050002A282B282F288E31B82680312F287E1071
:100060000900803133288731FE278031F900A23022
:1000700084008E308500D4308600003087000A303E
:100080008E3189268031F601F701F801A030840015
:100090000030850023308E3183268031203084006B
:1000A0000130850040308E31832680317E10400142
:1000B0008F31A02F833052018C0041013408031985
:1000C00062286328112A3308031D67286828112A2B
:1000D000B401B301B30A40011A141A179A1419177C
:1000E00003304101CA000830C9007730890B7628F7
:1000F000C90B7628CA0B762813308F31032780313D
:1001000013308F3103278031400121084101C100A4
:10011000400120084101C00052304101CA002B308B
:10012000C9000030890B9228C90B9228CA0B92286B
:10013000000013308F310327803140012108410135
:10014000AF00400120084101AE0041082F02031D0D
:10015000AB2840082E020318AE28AF28B3282F087A
:10016000C1002E08C00012304001BB000330BC00AB
:100170004130BD000030AB008030AC004530AD00F8
:10018000410141084001A900410140084001A80087
:100190008F312D27803140012808AE002908AF009B
:1001A0002A08B0008331F523803140012B08BE00BE
:1001B0002C08BF002D08C00083313423803140015A
:1001C0003B084101A90040013C084101AA0040014F
:1001D0003D084101AB0014308F31032780311430CA
:1001E0008F3103278031400121084101BF004001C8
:1001F00020084101BE0012304001BB000330BC00AA
:100200004130BD000030AB008030AC004530AD0067
:1002100041013F084001A90041013E084001A800FA
:100220008F312D27803140012808AE002908AF000A
:100230002A08B0008331F523803140012B08BE002D
:100240002C08BF002D08C0008331342380314001C9
:100250003B084101A60040013C084101A7004001C4
:100260003D084101A80040011A101A1319139A10F1
:10027000410126084001A000410127084001A100DA
:10028000410128084001A2003330A3005330A400EC
:100290004030A50087317C2780310318502951292F
:1002A00054294101B201B20A41013203031D592907
:1002B0005A29762900304001A0006030A10040306A
:1002C000A200410126084001A30041012708400186
:1002D000A400410128084001A50087317C27803116
:1002E00003187329742976294101B20141012608B6
:1002F0004001BE00410127084001BF00410128081C
:100300004001C0000030BB001630BC004430BD00CE
:1003100083313423803140013B084101C300400157
:100320003C084101C40040013D084101C500853140
:10033000A125803141014308CF004408D000450881
:10034000D1004F084001CB00410150084001CC00D2
:10035000410151084001CD008431A7248031400182
:100360004C084101CC0040014B084101CB00290859
:100370004001BE0041012A084001BF0041012B0895
:100380004001C0000030BB001630BC004430BD004E
:1003900083313423803140013B084101C3004001D7
:1003A0003C084101C40040013D084101C5008531C0
:1003B000A125803141014308CF004408D000450801
:1003C000D1004F084001CB00410150084001CC0052
:1003D000410151084001CD008431A7248031400102
:1003E0004C084101CE0040014B084101CD004C08B2
:1003F000C9004908A0004B08C9004908A1004E08DF
:10040000C9004908A2004D08C9004908A3003208E4
:10041000C9004908A400A5018E31AC2680314101F4
:10042000B30152018C01080040012808AE002908E0
:10043000AF002A08B00003102F0D300DB1003108B5
:10044000B4002B08AE002C08AF002D08B00003103C
:100450002F0D300DB1003108B30034080319312AD3
:10046000322A422A330834020318372A382A492A02
:100470003308AE003408AE0219302E02031C412AA4
:10048000422A492A2B08A8002C08A9002D08AA00F6
:10049000332B330803194D2A4E2A5E2A34083302BF
:1004A0000318532A542A5F2A3408AE003308AE02D8
:1004B00019302E02031C5D2A5E2A5F2A332B063078
:1004C000AE002E08B200AA1F662A672A682AB21751
:1004D000AD1F6B2A6C2A6D2A3217A917FF30A805A9
:1004E000FF30A9050030AA05AC17FF30AB05FF307F
:1004F000AC050030AD05330834020318802A812A88
:10050000A92A0130AB35AC0DAD0D890B822A013023
:10051000B3023308340603198E2A8F2AA22A013027
:10052000B20232080739031D962A972A812AA22A85
:100530000130AA36A90CA80C890B992A0130AE000B
:100540002E08B40734083306031DA72AA82A982AC0
:10055000D62A340833020318AE2AAF2AD62A01302D
:10056000A835A90DAA0D890BB02A0130B4023308B1
:1005700034060319BC2ABD2AD02A0130B20232083F
:100580000739031DC42AC52AAF2AD02A0130AD3647
:10059000AC0CAB0C890BC72A0130AE002E08B30798
:1005A00034083306031DD52AD62AC62AB21FD92AF3
:1005B000DA2AEA2AFF30A806FF30A906FF30AA0689
:1005C0000130A807003003180130A90700300318D4
:1005D0000130AA07321FED2AEE2AFE2AFF30AB06B1
:1005E000FF30AC06FF30AD060130AB07003003181A
:1005F0000130AC07003003180130AD07B201280804
:10060000AB072908AC3D2A08AD3DAD1F082B092BCF
:100610001B2BFF30AB06FF30AC06FF30AD060130C0
:10062000AB07003003180130AC070030031801306D
:10063000AD07B201B20A2B08A0002C08A1002D08BA
:10064000A2003408AE002E08A3003208AF002F0825
:10065000A40085312C25823140012008A800210802
:10066000A9002208AA00080040013B08C1003C087C
:10067000C2003D08C3000310420D430DC4004408EE
:10068000C5004508031D452B462B4D2B0030BB00F4
:100690000030BC000030BD00F42B3E08C1003F0814
:1006A000C2004008C3000310420D430DC4004408BB
:1006B000CA004A08031D5D2B5E2B652B0030BB0072
:1006C0000030BC000030BD00F42B4A087B3EC10066
:1006D0004108C5073B08C1003C08C2003D08C300F3
:1006E0001030C336C20CC10C890B712B4108C400F9
:1006F0004408CA003E08C1003F08C2004008C300C9
:100700001030C336C20CC10C890B812B4108C400C8
:100710004408CA068030C1004108CA05BC17BF178B
:10072000FF30BE05FF30BF050030C0050030C600F9
:100730000030C7000030C8000730C1004108C900C0
:100740003B1CA32BA42BAA2B3E08C6073F08C73D82
:100750004008C83D0130BD36BC0CBB0C890BAB2B2F
:100760000130BE35BF0DC00D890BB12B0130C90260
:10077000031DBB2BBC2BA02B0930C1004108C900B5
:100780003B1CC32BC42BCA2B3E08C6073F08C73DE2
:100790004008C83D0130BD36BC0CBB0C890BCB2BCF
:1007A0000130C836C70CC60C890BD12B0130C902E9
:1007B000031DDB2BDC2BC02B4608A0004708A10043
:1007C0004808A2004508C1004108A3004A08C20029
:1007D0004208A40085312C25833140012008BB004C
:1007E0002108BC002208BD00080040012E08B1000D
:1007F0002F08B2003008B3000310320D330DB400DF
:100800003408B9003908031D062C072C0E2C0030C3
:10081000AB000030AC000030AD00A62C2B08B100BE
:100820002C08B2002D08B3000310320D330DB400B4
:100830003408BA003A08031D1E2C1F2C262C003049
:10084000AB000030AC000030AD00A62C0030B6008C
:100850000030B7000030B80089303A07B1003108E5
:10086000B9022E08B1002F08B2003008B3001030D2
:10087000B336B20CB10C890B382C3108B4003408F3
:10088000BA002B08B1002C08B2002D08B3001030BC
:10089000B336B20CB10C890B482C3108B4003408C3
:1008A000BA068030B1003108BA05AF17FF30AE0587
:1008B000FF30AF050030B005AC17FF30AB05FF309F
:1008C000AC050030AD051830B1003108B50001307D
:1008D000B635B70DB80D890B682C2D083002031DF5
:1008E000772C2C082F02031D772C2B082E02031CBB
:1008F0007A2C7B2C822C2B08AE022C08AF3B2D08C7
:10090000B03B36140130AE35AF0DB00D890B832CE2
:100910000130B502031D8D2C8E2C672C3608A000EB
:100920003708A1003808A2003908B1003108A30037
:100930003A08B2003208A40085312C2583314001E9
:100940002008AB002108AC002208AD0008004001DF
:100950004B08CF004C08D0004D08D1000310500DBB
:10096000510DD2005208D8005808031DB82CB92CDC
:10097000C22C0030CE000030CD000030CC00003062
:10098000CB002B2D4B08CF004C08D0004D08D100D8
:100990001730D136D00CCF0C890BC92C4F08D200A0
:1009A0005208D300CC17FF30CB05FF30CC05003008
:1009B000CD054B08D4004C08D5004D08D600D70112
:1009C0008E30D802D81FE52CE62CFE2C5808803A31
:1009D0008F3E0318EC2CED2CEE2CB92C0130D736C1
:1009E000D60CD50CD40C890BEF2C0130CF004F085E
:1009F000D807031DFC2CFD2CEE2C132D18305802AB
:100A0000031C032D042D0E2DB92C0130D435D50D2A
:100A1000D60DD70D890B062D0130D8025808031DBD
:100A2000122D132D052D53080319172D182D232DC5
:100A3000D409D509D609D709D40A0319D50A031947
:100A4000D60A0319D70A5708CE005608CD00550814
:100A5000CC005408CB000800400123080319312DB5
:100A6000322D392D220821042004031D382D392D63
:100A70004A2D0030A0000030A1000030A200A02DBF
:100A80000130A5002508A3070130A236A10CA00C57
:100A9000890B452DFE302205031D4F2D502D402D75
:100AA000652D0130A5002508A3070130A0070030FF
:100AB00003180130A107003003180130A2070130EC
:100AC000A236A10CA00C890B602DFF302205031D5E
:100AD0006A2D6B2D512D742D0130A3020130A035EC
:100AE000A10DA20D890B6F2DA11B772D782D7E2DC9
:100AF0000230230203187D2D7E2D6C2D2318812DAD
:100B0000822D882DFF30A0057F30A105FF30A20582
:100B10000310A30C2308A500A601A7011030A535DA
:100B2000A60DA70D890B8F2D2508A0042608A1046A
:100B30002708A204240803199E2D9F2DA02DA2177B
:100B40000800410143084001E1004101440840011F
:100B5000E200410145084001E3008631B4268531B9
:100B600040016108EA006208EB006308EC00410103
:100B700043084001ED00410144084001EE004101FD
:100B800045084001EF008F317F27853140016A0819
:100B90004101C60040016B084101C70040016C08DB
:100BA0004101C80046084001A80041014708400132
:100BB000A900410148084001AA0041014308400141
:100BC000AB00410144084001AC004101450840012F
:100BD000AD00823114228531400128084101C30053
:100BE000400129084101C40040012A084101C50013
:100BF00043084001E100410144084001E200410195
:100C000045084001E3008631B42685314001610882
:100C10004101C300400162084101C4004001630872
:100C20004101C5000800F100562E4101B501B50A89
:100C3000642E7908F0007008B700F801B601B60A12
:100C40003E2E213078020318262E272E3E2E7908BC
:100C5000F0007808403E860001308700700881006F
:100C60000130F0007008F8073E2E41013508003AC7
:100C70000319212E013A0319192E212EB501642ED4
:100C8000770876020318452E462E532E7608203E0E
:100C9000860001308700010843018C000130F0001C
:100CA0007008F607642E43018C01642E7108003A27
:100CB0000319152E013A0319402E033A0319352E54
:100CC000013A0319642E642E080014304001980084
:100CD000990180309A002B309200F03093007E30E2
:100CE0009400AA307E01CE005030C3003330B800EB
:100CF000C4010130B9000430CF00BA01C501D001F0
:100D00003730BB00F030C600FF30D1003F30BC00B0
:100D1000F030C700FF30D2006730F4000E30F5002D
:100D20008E316B2686310230F4000030F5008E31B2
:100D3000712686310330F4000030F5008E317726BD
:100D40008631FF30F4000730F5008E317D26863184
:100D50000F307D01C50013307E019F0014309D00CF
:100D60000D307D01C600080040016108A000620846
:100D7000A1006308A2006830E4006408A300873182
:100D8000B52786314001E91FC62EC72ECE2E003072
:100D9000E1000030E2000030E300FA2E003069028A
:100DA000153003196802031CD62ED72ED82EFA2E22
:100DB0006108CB006208CC006308CD008431A72411
:100DC000863140014E08DC004D08DB004C08DA009B
:100DD0004B08D9008631FB26863140015908E500D1
:100DE0005A08E6005B08E7006508E1006608E200D3
:100DF0006708E30008004001E0018E30DD005D0877
:100E0000DF00DC1F042F052F1E2FD909DA09DB09AB
:100E1000DC09D90A0319DA0A0319DB0A0319DC0A07
:100E2000E001E00A1E2F0130DC36DB0CDA0CD90CB5
:100E3000890B142F0130DD005D08DF07FF305C05F2
:100E4000031D232F242F132F5908A0005A08A10097
:100E50005B08A2005F08DD005D08A3006008DE00FB
:100E60005E08A40085312C25863140012008D90078
:100E70002108DA002208DB0008004E0119100F10CB
:100E800043010C08F2007208F3000F1D482F492F90
:100E90005D2F8F1E4C2F4D2F562F111F502F512F6E
:100EA000562F0330863113268731752F0130863156
:100EB0001326873143011016752F8F1A602F612F6B
:100EC000662F0030863113268731752F7308F200A4
:100ED0007208F9000230863113268731430110165B
:100EE0004E010F1C742F752F702F4E010F104301F0
:100EF00010164E01191408004001A21F802F812FE7
:100F00008E2F2008003CA0002108031C210F003C6C
:100F1000A1002208031C220F803CA200A51F912FD4
:100F2000922F9F2F2308003CA3002408031C240FAA
:100F3000003CA4002508031C250F803CA500803040
:100F4000A2068030A50625082202031DAD2F240825
:100F50002102031DAD2F230820020318B02FB12F4B
:100F6000B32F0310B42F03140800400122082104FA
:100F70002004031DBC2FBD2FC42F2308860087012A
:100F80000030C03FC13FEC2F22087F39F400F5014B
:100F9000F435F50D2308860087017408C03F7508F5
:100FA000C13F210D210D0139F400F5012308860010
:100FB0008701740881044131750881042308860083
:100FC0008701823081074131FF30813D7F31220826
:100FD00080393F38A200A11308004001A0008E31E3
:100FE000982687318631652687318E318F26873165
:100FF000400120088F311827873108005534080038
:101CCC000800080063000000080075084101E500E9
:101CDC007408E400080075084101E3007408E20090
:101CEC00080075084101E1007408E000080075085F
:101CFC004101DF007408DE0008006400800101313E
:101D0C00890B842E0034FE0012001E00FE0B8A2E5E
:101D1C000034603051018D008F0191010630930029
:101D2C00920108004F0196019701980199019A01BF
:101D3C009B019C019D010800CF340F34003400340A
:101D4C005A34003443340F340034003440019A13B5
:101D5C003430F400F230890BB12EF40BB12E40016B
:101D6C009A1708004E010D10410130083104031977
:101D7C00C02EC12EC62E31088A0030080A008E31C2
:101D8C0008004101640865040319CD2ECE2ED32E14
:101D9C0065088A0064080A008E317E01551008001F
:101DAC004101620863040319DC2EDD2EE22E630868
:101DBC008A0062080A008E317E015511080041012B
:101DCC00600861040319EB2EEC2EF12E61088A00D9
:101DDC0060080A008E317E015512080041015E0830
:101DEC005F040319FA2EFB2E002F5F088A005E0891
:101DFC000A008E317E0155130800F400740841016D
:101E0C009F00420191171113111411180E2F0F2F4F
:101E1C000B2F41011E084001A10041011D0840018A
:101E2C00A0000800F40043018F012630900001301F
:101E3C00910092011214FE308E0074358D004E010B
:101E4C000F101914F601F8014101B6010800400108
:101E5C002808A0002908A100A2018E30F400740803
:101E6C00A300A40185312C258F3140012008A80046
:101E7C002108A9002208AA00080002304001A00095
:101E8C007508860087012008810041012008400167
:101E9C00A0007408860087012008810041012108F8
:101EAC004001A000740A8600870120088100080008
:101EBC007E01551C622F632F662F8E31C7268F3102
:101ECC007E01551D6A2F6B2F6E2F8E31D6268F31CA
:101EDC007E01551E722F732F762F8E31E5268F3192
:101EEC007E01551F7A2F7B2F7E2F8E31F4268F315A
:101EFC00080040016C086B046A040319862F872FB5
:101F0C00892F8030EC066D08A8006E08A9006F08B8
:101F1C00AA006A08AB006B08AC006C08AD008231FB
:101F2C0014228F3140012808EA002908EB002A0806
:101F3C00EC00080090308731ED278F318B170B1791
:101F4C0040019A17410155088A0054080A008F3144
:101F5C000430D43E86008701413F8A00403F0A008E
:101F6C008F31B8304101D2005208F400C230D30096
:101F7C005308F5000630D43E86008701413F8A00A5
:101F8C00403F0A008F318E3168268F31AE2F803161
:101F9C003128833052018C0041018C018D018E015E
:101FAC008F019201930198019A019F0142018C01CA
:101FBC008D018E018F019001920193019401950185
:101FCC00033096009701073098008430910052013D
:101FDC008C014001141014131313941019139A103C
:101FEC001A101A1394157E01CE15400114167E0199
:041FFC004E16080075
:020000040001F9
:0A000E00EC3FFF3FBF3FFF3FFF3F05
:00000001FF
